{
  "_format": "hh-sol-artifact-1",
  "contractName": "SkillCert",
  "sourceName": "contracts/SkillCert.sol",
  "abi": [
    {
      "inputs": [],
      "stateMutability": "nonpayable",
      "type": "constructor"
    },
    {
      "inputs": [
        {
          "internalType": "address",
          "name": "owner",
          "type": "address"
        }
      ],
      "name": "OwnableInvalidOwner",
      "type": "error"
    },
    {
      "inputs": [
        {
          "internalType": "address",
          "name": "account",
          "type": "address"
        }
      ],
      "name": "OwnableUnauthorizedAccount",
      "type": "error"
    },
    {
      "inputs": [],
      "name": "ReentrancyGuardReentrantCall",
      "type": "error"
    },
    {
      "anonymous": false,
      "inputs": [
        {
          "indexed": true,
          "internalType": "uint256",
          "name": "credentialId",
          "type": "uint256"
        },
        {
          "indexed": true,
          "internalType": "address",
          "name": "recipient",
          "type": "address"
        },
        {
          "indexed": true,
          "internalType": "address",
          "name": "issuer",
          "type": "address"
        },
        {
          "indexed": false,
          "internalType": "string",
          "name": "skill",
          "type": "string"
        },
        {
          "indexed": false,
          "internalType": "string",
          "name": "ipfsHash",
          "type": "string"
        }
      ],
      "name": "CredentialIssued",
      "type": "event"
    },
    {
      "anonymous": false,
      "inputs": [
        {
          "indexed": true,
          "internalType": "uint256",
          "name": "credentialId",
          "type": "uint256"
        },
        {
          "indexed": true,
          "internalType": "address",
          "name": "revoker",
          "type": "address"
        }
      ],
      "name": "CredentialRevoked",
      "type": "event"
    },
    {
      "anonymous": false,
      "inputs": [
        {
          "indexed": true,
          "internalType": "address",
          "name": "issuer",
          "type": "address"
        }
      ],
      "name": "IssuerAuthorized",
      "type": "event"
    },
    {
      "anonymous": false,
      "inputs": [
        {
          "indexed": true,
          "internalType": "address",
          "name": "issuer",
          "type": "address"
        }
      ],
      "name": "IssuerRevoked",
      "type": "event"
    },
    {
      "anonymous": false,
      "inputs": [
        {
          "indexed": true,
          "internalType": "address",
          "name": "previousOwner",
          "type": "address"
        },
        {
          "indexed": true,
          "internalType": "address",
          "name": "newOwner",
          "type": "address"
        }
      ],
      "name": "OwnershipTransferred",
      "type": "event"
    },
    {
      "inputs": [
        {
          "internalType": "address",
          "name": "issuer",
          "type": "address"
        }
      ],
      "name": "authorizeIssuer",
      "outputs": [],
      "stateMutability": "nonpayable",
      "type": "function"
    },
    {
      "inputs": [
        {
          "internalType": "address",
          "name": "",
          "type": "address"
        }
      ],
      "name": "authorizedIssuers",
      "outputs": [
        {
          "internalType": "bool",
          "name": "",
          "type": "bool"
        }
      ],
      "stateMutability": "view",
      "type": "function"
    },
    {
      "inputs": [
        {
          "internalType": "uint256",
          "name": "",
          "type": "uint256"
        }
      ],
      "name": "credentials",
      "outputs": [
        {
          "internalType": "uint256",
          "name": "id",
          "type": "uint256"
        },
        {
          "internalType": "address",
          "name": "recipient",
          "type": "address"
        },
        {
          "internalType": "address",
          "name": "issuer",
          "type": "address"
        },
        {
          "internalType": "string",
          "name": "skill",
          "type": "string"
        },
        {
          "internalType": "string",
          "name": "ipfsHash",
          "type": "string"
        },
        {
          "internalType": "uint256",
          "name": "timestamp",
          "type": "uint256"
        },
        {
          "internalType": "bool",
          "name": "isActive",
          "type": "bool"
        },
        {
          "internalType": "string",
          "name": "metadata",
          "type": "string"
        }
      ],
      "stateMutability": "view",
      "type": "function"
    },
    {
      "inputs": [
        {
          "internalType": "uint256[]",
          "name": "credentialIds",
          "type": "uint256[]"
        }
      ],
      "name": "getCredentialsBatch",
      "outputs": [
        {
          "components": [
            {
              "internalType": "uint256",
              "name": "id",
              "type": "uint256"
            },
            {
              "internalType": "address",
              "name": "recipient",
              "type": "address"
            },
            {
              "internalType": "address",
              "name": "issuer",
              "type": "address"
            },
            {
              "internalType": "string",
              "name": "skill",
              "type": "string"
            },
            {
              "internalType": "string",
              "name": "ipfsHash",
              "type": "string"
            },
            {
              "internalType": "uint256",
              "name": "timestamp",
              "type": "uint256"
            },
            {
              "internalType": "bool",
              "name": "isActive",
              "type": "bool"
            },
            {
              "internalType": "string",
              "name": "metadata",
              "type": "string"
            }
          ],
          "internalType": "struct SkillCert.Credential[]",
          "name": "",
          "type": "tuple[]"
        }
      ],
      "stateMutability": "view",
      "type": "function"
    },
    {
      "inputs": [
        {
          "internalType": "string",
          "name": "skill",
          "type": "string"
        },
        {
          "internalType": "uint256",
          "name": "offset",
          "type": "uint256"
        },
        {
          "internalType": "uint256",
          "name": "limit",
          "type": "uint256"
        }
      ],
      "name": "getCredentialsBySkill",
      "outputs": [
        {
          "components": [
            {
              "internalType": "uint256",
              "name": "id",
              "type": "uint256"
            },
            {
              "internalType": "address",
              "name": "recipient",
              "type": "address"
            },
            {
              "internalType": "address",
              "name": "issuer",
              "type": "address"
            },
            {
              "internalType": "string",
              "name": "skill",
              "type": "string"
            },
            {
              "internalType": "string",
              "name": "ipfsHash",
              "type": "string"
            },
            {
              "internalType": "uint256",
              "name": "timestamp",
              "type": "uint256"
            },
            {
              "internalType": "bool",
              "name": "isActive",
              "type": "bool"
            },
            {
              "internalType": "string",
              "name": "metadata",
              "type": "string"
            }
          ],
          "internalType": "struct SkillCert.Credential[]",
          "name": "",
          "type": "tuple[]"
        }
      ],
      "stateMutability": "view",
      "type": "function"
    },
    {
      "inputs": [],
      "name": "getTotalCredentials",
      "outputs": [
        {
          "internalType": "uint256",
          "name": "",
          "type": "uint256"
        }
      ],
      "stateMutability": "view",
      "type": "function"
    },
    {
      "inputs": [
        {
          "internalType": "address",
          "name": "user",
          "type": "address"
        }
      ],
      "name": "getUserCredentials",
      "outputs": [
        {
          "internalType": "uint256[]",
          "name": "",
          "type": "uint256[]"
        }
      ],
      "stateMutability": "view",
      "type": "function"
    },
    {
      "inputs": [
        {
          "internalType": "address",
          "name": "issuer",
          "type": "address"
        }
      ],
      "name": "isAuthorizedIssuer",
      "outputs": [
        {
          "internalType": "bool",
          "name": "",
          "type": "bool"
        }
      ],
      "stateMutability": "view",
      "type": "function"
    },
    {
      "inputs": [
        {
          "internalType": "address",
          "name": "recipient",
          "type": "address"
        },
        {
          "internalType": "string",
          "name": "skill",
          "type": "string"
        },
        {
          "internalType": "string",
          "name": "ipfsHash",
          "type": "string"
        },
        {
          "internalType": "string",
          "name": "metadata",
          "type": "string"
        }
      ],
      "name": "issueCredential",
      "outputs": [
        {
          "internalType": "uint256",
          "name": "",
          "type": "uint256"
        }
      ],
      "stateMutability": "nonpayable",
      "type": "function"
    },
    {
      "inputs": [],
      "name": "owner",
      "outputs": [
        {
          "internalType": "address",
          "name": "",
          "type": "address"
        }
      ],
      "stateMutability": "view",
      "type": "function"
    },
    {
      "inputs": [],
      "name": "renounceOwnership",
      "outputs": [],
      "stateMutability": "nonpayable",
      "type": "function"
    },
    {
      "inputs": [
        {
          "internalType": "uint256",
          "name": "credentialId",
          "type": "uint256"
        }
      ],
      "name": "revokeCredential",
      "outputs": [],
      "stateMutability": "nonpayable",
      "type": "function"
    },
    {
      "inputs": [
        {
          "internalType": "address",
          "name": "issuer",
          "type": "address"
        }
      ],
      "name": "revokeIssuer",
      "outputs": [],
      "stateMutability": "nonpayable",
      "type": "function"
    },
    {
      "inputs": [
        {
          "internalType": "address",
          "name": "newOwner",
          "type": "address"
        }
      ],
      "name": "transferOwnership",
      "outputs": [],
      "stateMutability": "nonpayable",
      "type": "function"
    },
    {
      "inputs": [
        {
          "internalType": "address",
          "name": "",
          "type": "address"
        },
        {
          "internalType": "uint256",
          "name": "",
          "type": "uint256"
        }
      ],
      "name": "userCredentials",
      "outputs": [
        {
          "internalType": "uint256",
          "name": "",
          "type": "uint256"
        }
      ],
      "stateMutability": "view",
      "type": "function"
    },
    {
      "inputs": [
        {
          "internalType": "uint256",
          "name": "credentialId",
          "type": "uint256"
        }
      ],
      "name": "verifyCredential",
      "outputs": [
        {
          "internalType": "bool",
          "name": "isValid",
          "type": "bool"
        },
        {
          "components": [
            {
              "internalType": "uint256",
              "name": "id",
              "type": "uint256"
            },
            {
              "internalType": "address",
              "name": "recipient",
              "type": "address"
            },
            {
              "internalType": "address",
              "name": "issuer",
              "type": "address"
            },
            {
              "internalType": "string",
              "name": "skill",
              "type": "string"
            },
            {
              "internalType": "string",
              "name": "ipfsHash",
              "type": "string"
            },
            {
              "internalType": "uint256",
              "name": "timestamp",
              "type": "uint256"
            },
            {
              "internalType": "bool",
              "name": "isActive",
              "type": "bool"
            },
            {
              "internalType": "string",
              "name": "metadata",
              "type": "string"
            }
          ],
          "internalType": "struct SkillCert.Credential",
          "name": "credential",
          "type": "tuple"
        }
      ],
      "stateMutability": "view",
      "type": "function"
    }
  ],
  "bytecode": "0x608060405234801561001057600080fd5b506001600055338061003c57604051631e4fbdf760e01b81526000600482015260240160405180910390fd5b61004581610068565b50336000908152600560205260408120805460ff191660011790556002556100ba565b600180546001600160a01b038381166001600160a01b0319831681179093556040519116919082907f8be0079c531659141344cd1fd0a4f28419497f9722a3daafe3b4186f6b6457e090600090a35050565b611eee806100c96000396000f3fe608060405234801561001057600080fd5b50600436106100ff5760003560e01c80638da5cb5b11610097578063f1470a3511610066578063f1470a3514610251578063f2a91b1c14610259578063f2fde38b1461027a578063f731fa0f1461028d57600080fd5b80638da5cb5b146101dc5780639364ace9146101f7578063c76d29191461020a578063e0574e3f1461022a57600080fd5b806331ba1966116100d357806331ba196614610172578063436693d5146101ae578063715018a6146101c1578063779f1ec1146101c957600080fd5b806262967914610104578063049a380d146101195780631579e7f21461013f5780631b87278d1461015f575b600080fd5b610117610112366004611751565b6102b0565b005b61012c61012736600461182a565b61037c565b6040519081526020015b60405180910390f35b61015261014d3660046118c3565b610724565b6040516101369190611a61565b61011761016d366004611ac3565b610a48565b61019e610180366004611751565b6001600160a01b031660009081526005602052604090205460ff1690565b6040519015158152602001610136565b6101176101bc366004611751565b610bc5565b610117610c68565b6101526101d7366004611adc565b610c7c565b6001546040516001600160a01b039091168152602001610136565b61012c610205366004611b2a565b6110d6565b61021d610218366004611751565b611107565b6040516101369190611b54565b61023d610238366004611ac3565b611173565b604051610136989796959493929190611b98565b60025461012c565b61026c610267366004611ac3565b611362565b604051610136929190611c10565b610117610288366004611751565b6115f5565b61019e61029b366004611751565b60056020526000908152604090205460ff1681565b6102b8611633565b6001546001600160a01b03166001600160a01b0316816001600160a01b0316036103335760405162461bcd60e51b815260206004820152602160248201527f43616e6e6f74207265766f6b65206f776e657220617574686f72697a6174696f6044820152603760f91b60648201526084015b60405180910390fd5b6001600160a01b038116600081815260056020526040808220805460ff19169055517f95a4c2ae425bb769549aa1a911911ff57c17ae811ae8c8962d0b9746fcb153979190a250565b3360009081526005602052604081205460ff16806103a457506001546001600160a01b031633145b6103fc5760405162461bcd60e51b815260206004820152602360248201527f4e6f7420617574686f72697a656420746f2069737375652063726564656e7469604482015262616c7360e81b606482015260840161032a565b610404611660565b6001600160a01b03851661045a5760405162461bcd60e51b815260206004820152601960248201527f496e76616c696420726563697069656e74206164647265737300000000000000604482015260640161032a565b60008451116104a35760405162461bcd60e51b8152602060048201526015602482015274536b696c6c2063616e6e6f7420626520656d70747960581b604482015260640161032a565b60008351116104f45760405162461bcd60e51b815260206004820152601960248201527f4950465320686173682063616e6e6f7420626520656d70747900000000000000604482015260640161032a565b600084848760405160200161050b93929190611c2b565b60408051601f1981840301815291815281516020928301206000818152600690935291205490915060ff16156105835760405162461bcd60e51b815260206004820181905260248201527f546869732070726f6f662068617320616c7265616479206265656e2075736564604482015260640161032a565b6002805490600061059383611c8c565b90915550506002805460408051610100810182528281526001600160a01b03808b16602080840191825233848601908152606085018d8152608086018d90524260a0870152600160c0870181905260e087018d905260008981526003948590529790972086518155935196840180549786166001600160a01b0319988916179055905197830180549890941697909516969096179091559151929390929082019061063e9082611d2e565b50608082015160048201906106539082611d2e565b5060a0820151600582015560c082015160068201805460ff191691151591909117905560e0820151600782019061068a9082611d2e565b5050506001600160a01b038716600081815260046020908152604080832080546001818101835591855283852001869055868452600690925291829020805460ff191690911790555133919083907f2ec0f811294a1373db1a1f85e0a119a631d40f3e1d1bbba7776fc28ef0bd31f890610707908b908b90611dee565b60405180910390a491505061071c6001600055565b949350505050565b60606000825167ffffffffffffffff81111561074257610742611773565b60405190808252806020026020018201604052801561077b57816020015b6107686116dc565b8152602001906001900390816107605790505b50905060005b8351811015610a4157600084828151811061079e5761079e611e13565b60200260200101511180156107ce57506002548482815181106107c3576107c3611e13565b602002602001015111155b15610a2f57600360008583815181106107e9576107e9611e13565b60209081029190910181015182528181019290925260409081016000208151610100810183528154815260018201546001600160a01b039081169482019490945260028201549093169183019190915260038101805460608401919061084e90611ca5565b80601f016020809104026020016040519081016040528092919081815260200182805461087a90611ca5565b80156108c75780601f1061089c576101008083540402835291602001916108c7565b820191906000526020600020905b8154815290600101906020018083116108aa57829003601f168201915b505050505081526020016004820180546108e090611ca5565b80601f016020809104026020016040519081016040528092919081815260200182805461090c90611ca5565b80156109595780601f1061092e57610100808354040283529160200191610959565b820191906000526020600020905b81548152906001019060200180831161093c57829003601f168201915b505050918352505060058201546020820152600682015460ff161515604082015260078201805460609092019161098f90611ca5565b80601f01602080910402602001604051908101604052809291908181526020018280546109bb90611ca5565b8015610a085780601f106109dd57610100808354040283529160200191610a08565b820191906000526020600020905b8154815290600101906020018083116109eb57829003601f168201915b505050505081525050828281518110610a2357610a23611e13565b60200260200101819052505b80610a3981611c8c565b915050610781565b5092915050565b80600081118015610a5b57506002548111155b610aa35760405162461bcd60e51b815260206004820152601960248201527810dc9959195b9d1a585b08191bd95cc81b9bdd08195e1a5cdd603a1b604482015260640161032a565b600082815260036020526040902060028101546001600160a01b0316331480610ad657506001546001600160a01b031633145b610b335760405162461bcd60e51b815260206004820152602860248201527f4f6e6c7920697373756572206f7220636f6e7472616374206f776e65722063616044820152676e207265766f6b6560c01b606482015260840161032a565b600681015460ff16610b875760405162461bcd60e51b815260206004820152601a60248201527f43726564656e7469616c20616c7265616479207265766f6b6564000000000000604482015260640161032a565b60068101805460ff19169055604051339084907f936526f4a3155895d9f01699716f2e0c548d726a24a1437e5ce92b3dacaad35b90600090a3505050565b610bcd611633565b6001600160a01b038116610c1c5760405162461bcd60e51b8152602060048201526016602482015275496e76616c696420697373756572206164647265737360501b604482015260640161032a565b6001600160a01b038116600081815260056020526040808220805460ff19166001179055517f8b4006ca14f23d4e7aa8d120d1ab7c3761d650eefac1a5d6732dbea94b54ea249190a250565b610c70611633565b610c7a600061168a565b565b6060600082118015610c8f575060648211155b610cdb5760405162461bcd60e51b815260206004820152601f60248201527f4c696d6974206d757374206265206265747765656e203120616e642031303000604482015260640161032a565b60025460008060015b838111158015610cfc5750610cf98688611e29565b82105b15610d8c57878051906020012060036000838152602001908152602001600020600301604051610d2c9190611e42565b6040518091039020148015610d52575060008181526003602052604090206006015460ff165b15610d7a57868210610d6c5782610d6881611c8c565b9350505b81610d7681611c8c565b9250505b80610d8481611c8c565b915050610ce4565b5060008267ffffffffffffffff811115610da857610da8611773565b604051908082528060200260200182016040528015610de157816020015b610dce6116dc565b815260200190600190039081610dc65790505b506000925090508160015b858111158015610dfb57508482105b156110c857898051906020012060036000838152602001908152602001600020600301604051610e2b9190611e42565b6040518091039020148015610e51575060008181526003602052604090206006015460ff165b156110b6578884106110a8576000818152600360208181526040928390208351610100810185528154815260018201546001600160a01b03908116938201939093526002820154909216938201939093529082018054919291606084019190610eb990611ca5565b80601f0160208091040260200160405190810160405280929190818152602001828054610ee590611ca5565b8015610f325780601f10610f0757610100808354040283529160200191610f32565b820191906000526020600020905b815481529060010190602001808311610f1557829003601f168201915b50505050508152602001600482018054610f4b90611ca5565b80601f0160208091040260200160405190810160405280929190818152602001828054610f7790611ca5565b8015610fc45780601f10610f9957610100808354040283529160200191610fc4565b820191906000526020600020905b815481529060010190602001808311610fa757829003601f168201915b505050918352505060058201546020820152600682015460ff1615156040820152600782018054606090920191610ffa90611ca5565b80601f016020809104026020016040519081016040528092919081815260200182805461102690611ca5565b80156110735780601f1061104857610100808354040283529160200191611073565b820191906000526020600020905b81548152906001019060200180831161105657829003601f168201915b50505050508152505083838151811061108e5761108e611e13565b602002602001018190525081806110a490611c8c565b9250505b836110b281611c8c565b9450505b806110c081611c8c565b915050610dec565b509098975050505050505050565b600460205281600052604060002081815481106110f257600080fd5b90600052602060002001600091509150505481565b6001600160a01b03811660009081526004602090815260409182902080548351818402810184019094528084526060939283018282801561116757602002820191906000526020600020905b815481526020019060010190808311611153575b50505050509050919050565b6003602081905260009182526040909120805460018201546002830154938301805492946001600160a01b03928316949216926111af90611ca5565b80601f01602080910402602001604051908101604052809291908181526020018280546111db90611ca5565b80156112285780601f106111fd57610100808354040283529160200191611228565b820191906000526020600020905b81548152906001019060200180831161120b57829003601f168201915b50505050509080600401805461123d90611ca5565b80601f016020809104026020016040519081016040528092919081815260200182805461126990611ca5565b80156112b65780601f1061128b576101008083540402835291602001916112b6565b820191906000526020600020905b81548152906001019060200180831161129957829003601f168201915b50505050600583015460068401546007850180549495929460ff9092169350906112df90611ca5565b80601f016020809104026020016040519081016040528092919081815260200182805461130b90611ca5565b80156113585780601f1061132d57610100808354040283529160200191611358565b820191906000526020600020905b81548152906001019060200180831161133b57829003601f168201915b5050505050905088565b600061136c6116dc565b8260008111801561137f57506002548111155b6113c75760405162461bcd60e51b815260206004820152601960248201527810dc9959195b9d1a585b08191bd95cc81b9bdd08195e1a5cdd603a1b604482015260640161032a565b6000848152600360208181526040928390208351610100810185528154815260018201546001600160a01b0390811693820193909352600282015490921693820193909352908201805491929160608401919061142390611ca5565b80601f016020809104026020016040519081016040528092919081815260200182805461144f90611ca5565b801561149c5780601f106114715761010080835404028352916020019161149c565b820191906000526020600020905b81548152906001019060200180831161147f57829003601f168201915b505050505081526020016004820180546114b590611ca5565b80601f01602080910402602001604051908101604052809291908181526020018280546114e190611ca5565b801561152e5780601f106115035761010080835404028352916020019161152e565b820191906000526020600020905b81548152906001019060200180831161151157829003601f168201915b505050918352505060058201546020820152600682015460ff161515604082015260078201805460609092019161156490611ca5565b80601f016020809104026020016040519081016040528092919081815260200182805461159090611ca5565b80156115dd5780601f106115b2576101008083540402835291602001916115dd565b820191906000526020600020905b8154815290600101906020018083116115c057829003601f168201915b50505050508152505091508160c00151925050915091565b6115fd611633565b6001600160a01b03811661162757604051631e4fbdf760e01b81526000600482015260240161032a565b6116308161168a565b50565b6001546001600160a01b03163314610c7a5760405163118cdaa760e01b815233600482015260240161032a565b60026000540361168357604051633ee5aeb560e01b815260040160405180910390fd5b6002600055565b600180546001600160a01b038381166001600160a01b0319831681179093556040519116919082907f8be0079c531659141344cd1fd0a4f28419497f9722a3daafe3b4186f6b6457e090600090a35050565b6040518061010001604052806000815260200160006001600160a01b0316815260200160006001600160a01b03168152602001606081526020016060815260200160008152602001600015158152602001606081525090565b80356001600160a01b038116811461174c57600080fd5b919050565b60006020828403121561176357600080fd5b61176c82611735565b9392505050565b634e487b7160e01b600052604160045260246000fd5b604051601f8201601f1916810167ffffffffffffffff811182821017156117b2576117b2611773565b604052919050565b600082601f8301126117cb57600080fd5b813567ffffffffffffffff8111156117e5576117e5611773565b6117f8601f8201601f1916602001611789565b81815284602083860101111561180d57600080fd5b816020850160208301376000918101602001919091529392505050565b6000806000806080858703121561184057600080fd5b61184985611735565b9350602085013567ffffffffffffffff8082111561186657600080fd5b611872888389016117ba565b9450604087013591508082111561188857600080fd5b611894888389016117ba565b935060608701359150808211156118aa57600080fd5b506118b7878288016117ba565b91505092959194509250565b600060208083850312156118d657600080fd5b823567ffffffffffffffff808211156118ee57600080fd5b818501915085601f83011261190257600080fd5b81358181111561191457611914611773565b8060051b9150611925848301611789565b818152918301840191848101908884111561193f57600080fd5b938501935b8385101561195d57843582529385019390850190611944565b98975050505050505050565b60005b8381101561198457818101518382015260200161196c565b50506000910152565b600081518084526119a5816020860160208601611969565b601f01601f19169290920160200192915050565b60006101008251845260018060a01b03602084015116602085015260408301516119ee60408601826001600160a01b03169052565b506060830151816060860152611a068286018261198d565b91505060808301518482036080860152611a20828261198d565b91505060a083015160a085015260c0830151611a4060c086018215159052565b5060e083015184820360e0860152611a58828261198d565b95945050505050565b6000602080830181845280855180835260408601915060408160051b870101925083870160005b82811015611ab657603f19888603018452611aa48583516119b9565b94509285019290850190600101611a88565b5092979650505050505050565b600060208284031215611ad557600080fd5b5035919050565b600080600060608486031215611af157600080fd5b833567ffffffffffffffff811115611b0857600080fd5b611b14868287016117ba565b9660208601359650604090950135949350505050565b60008060408385031215611b3d57600080fd5b611b4683611735565b946020939093013593505050565b6020808252825182820181905260009190848201906040850190845b81811015611b8c57835183529284019291840191600101611b70565b50909695505050505050565b8881526001600160a01b0388811660208301528716604082015261010060608201819052600090611bcb8382018961198d565b90508281036080840152611bdf818861198d565b90508560a084015284151560c084015282810360e0840152611c01818561198d565b9b9a5050505050505050505050565b821515815260406020820152600061071c60408301846119b9565b60008451611c3d818460208901611969565b845190830190611c51818360208901611969565b60609490941b6bffffffffffffffffffffffff19169301928352505060140192915050565b634e487b7160e01b600052601160045260246000fd5b600060018201611c9e57611c9e611c76565b5060010190565b600181811c90821680611cb957607f821691505b602082108103611cd957634e487b7160e01b600052602260045260246000fd5b50919050565b601f821115611d2957600081815260208120601f850160051c81016020861015611d065750805b601f850160051c820191505b81811015611d2557828155600101611d12565b5050505b505050565b815167ffffffffffffffff811115611d4857611d48611773565b611d5c81611d568454611ca5565b84611cdf565b602080601f831160018114611d915760008415611d795750858301515b600019600386901b1c1916600185901b178555611d25565b600085815260208120601f198616915b82811015611dc057888601518255948401946001909101908401611da1565b5085821015611dde5787850151600019600388901b60f8161c191681555b5050505050600190811b01905550565b604081526000611e01604083018561198d565b8281036020840152611a58818561198d565b634e487b7160e01b600052603260045260246000fd5b80820180821115611e3c57611e3c611c76565b92915050565b6000808354611e5081611ca5565b60018281168015611e685760018114611e7d57611eac565b60ff1984168752821515830287019450611eac565b8760005260208060002060005b85811015611ea35781548a820152908401908201611e8a565b50505082870194505b5092969550505050505056fea264697066735822122058229241d748430ccb9b6bd0dc52981884fa8aafb0e4d6273e35073d8fc8e43864736f6c63430008140033",
  "linkReferences": {},
  "deployedLinkReferences": {}
}